{
  "contractName": "Migrations",
  "abi": [
    {
      "inputs": [],
      "payable": false,
      "stateMutability": "nonpayable",
      "type": "constructor"
    },
    {
      "constant": true,
      "inputs": [],
      "name": "ContractOwner",
      "outputs": [
        {
          "internalType": "address",
          "name": "",
          "type": "address"
        }
      ],
      "payable": false,
      "stateMutability": "view",
      "type": "function"
    },
    {
      "constant": true,
      "inputs": [],
      "name": "last_completed_migration",
      "outputs": [
        {
          "internalType": "uint256",
          "name": "",
          "type": "uint256"
        }
      ],
      "payable": false,
      "stateMutability": "view",
      "type": "function"
    },
    {
      "constant": false,
      "inputs": [
        {
          "internalType": "address",
          "name": "UserAddress",
          "type": "address"
        },
        {
          "internalType": "string",
          "name": "FullName",
          "type": "string"
        },
        {
          "internalType": "string",
          "name": "DocNum",
          "type": "string"
        },
        {
          "internalType": "string",
          "name": "IpfsHash",
          "type": "string"
        }
      ],
      "name": "AddUser",
      "outputs": [],
      "payable": false,
      "stateMutability": "nonpayable",
      "type": "function"
    },
    {
      "constant": true,
      "inputs": [
        {
          "internalType": "address",
          "name": "UserAddress",
          "type": "address"
        }
      ],
      "name": "ViewDocRequestLength",
      "outputs": [
        {
          "internalType": "uint256",
          "name": "length",
          "type": "uint256"
        }
      ],
      "payable": false,
      "stateMutability": "view",
      "type": "function"
    },
    {
      "constant": true,
      "inputs": [
        {
          "internalType": "address",
          "name": "UserAddress",
          "type": "address"
        }
      ],
      "name": "viewUser",
      "outputs": [
        {
          "internalType": "string",
          "name": "FullName",
          "type": "string"
        },
        {
          "internalType": "string",
          "name": "DocNum",
          "type": "string"
        },
        {
          "internalType": "string",
          "name": "IpfsHash",
          "type": "string"
        }
      ],
      "payable": false,
      "stateMutability": "view",
      "type": "function"
    },
    {
      "constant": false,
      "inputs": [
        {
          "internalType": "address",
          "name": "UserAddress",
          "type": "address"
        },
        {
          "internalType": "address",
          "name": "ReqBy",
          "type": "address"
        },
        {
          "internalType": "string",
          "name": "Reqname",
          "type": "string"
        },
        {
          "internalType": "uint256",
          "name": "nameFlag",
          "type": "uint256"
        },
        {
          "internalType": "uint256",
          "name": "numFlag",
          "type": "uint256"
        },
        {
          "internalType": "uint256",
          "name": "ipfsHashFlag",
          "type": "uint256"
        }
      ],
      "name": "AddDocRequest",
      "outputs": [],
      "payable": false,
      "stateMutability": "nonpayable",
      "type": "function"
    },
    {
      "constant": true,
      "inputs": [
        {
          "internalType": "address",
          "name": "UserAddress",
          "type": "address"
        },
        {
          "internalType": "uint256",
          "name": "RequestIndex",
          "type": "uint256"
        }
      ],
      "name": "ViewDocRequestHeader",
      "outputs": [
        {
          "internalType": "address",
          "name": "Reqby",
          "type": "address"
        },
        {
          "internalType": "string",
          "name": "ReqName",
          "type": "string"
        },
        {
          "internalType": "uint256",
          "name": "Overall_Status",
          "type": "uint256"
        }
      ],
      "payable": false,
      "stateMutability": "view",
      "type": "function"
    },
    {
      "constant": true,
      "inputs": [
        {
          "internalType": "address",
          "name": "UserAddress",
          "type": "address"
        },
        {
          "internalType": "uint256",
          "name": "ReqIndex",
          "type": "uint256"
        }
      ],
      "name": "viewDocRequest",
      "outputs": [
        {
          "internalType": "address",
          "name": "ReqBy",
          "type": "address"
        },
        {
          "internalType": "string",
          "name": "Reqname",
          "type": "string"
        },
        {
          "internalType": "uint256",
          "name": "nameFlag",
          "type": "uint256"
        },
        {
          "internalType": "uint256",
          "name": "numFlag",
          "type": "uint256"
        },
        {
          "internalType": "uint256",
          "name": "ipfsHashFlag",
          "type": "uint256"
        },
        {
          "internalType": "uint256",
          "name": "Overall_status",
          "type": "uint256"
        }
      ],
      "payable": false,
      "stateMutability": "view",
      "type": "function"
    },
    {
      "constant": false,
      "inputs": [
        {
          "internalType": "uint256",
          "name": "completed",
          "type": "uint256"
        }
      ],
      "name": "setCompleted",
      "outputs": [],
      "payable": false,
      "stateMutability": "nonpayable",
      "type": "function"
    }
  ],
  "bytecode": "0x608060405234801561001057600080fd5b5033600160006101000a81548173ffffffffffffffffffffffffffffffffffffffff021916908373ffffffffffffffffffffffffffffffffffffffff160217905550611248806100616000396000f3fe608060405234801561001057600080fd5b50600436106100935760003560e01c80635a63fbc9116100665780635a63fbc9146104ee5780636cc8bda7146105385780637564e265146106cd578063b2c23aed146107ce578063fdacd5761461082657610093565b8063445df0ac1461009857806348b6fba4146100b65780634ac32075146101cf578063556343f0146103d8575b600080fd5b6100a0610854565b6040518082815260200191505060405180910390f35b6101cd600480360360c08110156100cc57600080fd5b81019080803573ffffffffffffffffffffffffffffffffffffffff169060200190929190803573ffffffffffffffffffffffffffffffffffffffff1690602001909291908035906020019064010000000081111561012957600080fd5b82018360208201111561013b57600080fd5b8035906020019184600183028401116401000000008311171561015d57600080fd5b91908080601f016020809104026020016040519081016040528093929190818152602001838380828437600081840152601f19601f82011690508083019250505050505050919291929080359060200190929190803590602001909291908035906020019092919050505061085a565b005b6103d6600480360360808110156101e557600080fd5b81019080803573ffffffffffffffffffffffffffffffffffffffff1690602001909291908035906020019064010000000081111561022257600080fd5b82018360208201111561023457600080fd5b8035906020019184600183028401116401000000008311171561025657600080fd5b91908080601f016020809104026020016040519081016040528093929190818152602001838380828437600081840152601f19601f820116905080830192505050505050509192919290803590602001906401000000008111156102b957600080fd5b8201836020820111156102cb57600080fd5b803590602001918460018302840111640100000000831117156102ed57600080fd5b91908080601f016020809104026020016040519081016040528093929190818152602001838380828437600081840152601f19601f8201169050808301925050505050505091929192908035906020019064010000000081111561035057600080fd5b82018360208201111561036257600080fd5b8035906020019184600183028401116401000000008311171561038457600080fd5b91908080601f016020809104026020016040519081016040528093929190818152602001838380828437600081840152601f19601f82011690508083019250505050505050919291929050505061099f565b005b610424600480360360408110156103ee57600080fd5b81019080803573ffffffffffffffffffffffffffffffffffffffff16906020019092919080359060200190929190505050610a84565b604051808773ffffffffffffffffffffffffffffffffffffffff1673ffffffffffffffffffffffffffffffffffffffff16815260200180602001868152602001858152602001848152602001838152602001828103825287818151815260200191508051906020019080838360005b838110156104ae578082015181840152602081019050610493565b50505050905090810190601f1680156104db5780820380516001836020036101000a031916815260200191505b5097505050505050505060405180910390f35b6104f6610c53565b604051808273ffffffffffffffffffffffffffffffffffffffff1673ffffffffffffffffffffffffffffffffffffffff16815260200191505060405180910390f35b61057a6004803603602081101561054e57600080fd5b81019080803573ffffffffffffffffffffffffffffffffffffffff169060200190929190505050610c79565b60405180806020018060200180602001848103845287818151815260200191508051906020019080838360005b838110156105c25780820151818401526020810190506105a7565b50505050905090810190601f1680156105ef5780820380516001836020036101000a031916815260200191505b50848103835286818151815260200191508051906020019080838360005b8381101561062857808201518184015260208101905061060d565b50505050905090810190601f1680156106555780820380516001836020036101000a031916815260200191505b50848103825285818151815260200191508051906020019080838360005b8381101561068e578082015181840152602081019050610673565b50505050905090810190601f1680156106bb5780820380516001836020036101000a031916815260200191505b50965050505050505060405180910390f35b610719600480360360408110156106e357600080fd5b81019080803573ffffffffffffffffffffffffffffffffffffffff16906020019092919080359060200190929190505050610ef8565b604051808473ffffffffffffffffffffffffffffffffffffffff1673ffffffffffffffffffffffffffffffffffffffff16815260200180602001838152602001828103825284818151815260200191508051906020019080838360005b83811015610791578082015181840152602081019050610776565b50505050905090810190601f1680156107be5780820380516001836020036101000a031916815260200191505b5094505050505060405180910390f35b610810600480360360208110156107e457600080fd5b81019080803573ffffffffffffffffffffffffffffffffffffffff1690602001909291905050506110ab565b6040518082815260200191505060405180910390f35b6108526004803603602081101561083c57600080fd5b81019080803590602001909291905050506110f7565b005b60005481565b600360008773ffffffffffffffffffffffffffffffffffffffff1673ffffffffffffffffffffffffffffffffffffffff1681526020019081526020016000206040518060c001604052808773ffffffffffffffffffffffffffffffffffffffff16815260200186815260200185815260200184815260200183815260200160008152509080600181540180825580915050906001820390600052602060002090600602016000909192909190915060008201518160000160006101000a81548173ffffffffffffffffffffffffffffffffffffffff021916908373ffffffffffffffffffffffffffffffffffffffff160217905550602082015181600101908051906020019061096b929190611101565b5060408201518160020155606082015181600301556080820151816004015560a08201518160050155505050505050505050565b600260008573ffffffffffffffffffffffffffffffffffffffff1673ffffffffffffffffffffffffffffffffffffffff168152602001908152602001600020604051806060016040528085815260200184815260200183815250908060018154018082558091505090600182039060005260206000209060030201600090919290919091506000820151816000019080519060200190610a40929190611101565b506020820151816001019080519060200190610a5d929190611101565b506040820151816002019080519060200190610a7a929190611101565b5050505050505050565b60006060600080600080610a96611181565b600360008a73ffffffffffffffffffffffffffffffffffffffff1673ffffffffffffffffffffffffffffffffffffffff1681526020019081526020016000208881548110610ae057fe5b90600052602060002090600602016040518060c00160405290816000820160009054906101000a900473ffffffffffffffffffffffffffffffffffffffff1673ffffffffffffffffffffffffffffffffffffffff1673ffffffffffffffffffffffffffffffffffffffff168152602001600182018054600181600116156101000203166002900480601f016020809104026020016040519081016040528092919081815260200182805460018160011615610100020316600290048015610be85780601f10610bbd57610100808354040283529160200191610be8565b820191906000526020600020905b815481529060010190602001808311610bcb57829003601f168201915b505050505081526020016002820154815260200160038201548152602001600482015481526020016005820154815250509050806000015181602001518260400151836060015184608001518560a00151849450965096509650965096509650509295509295509295565b600160009054906101000a900473ffffffffffffffffffffffffffffffffffffffff1681565b6060806060610c866111cd565b600260008673ffffffffffffffffffffffffffffffffffffffff1673ffffffffffffffffffffffffffffffffffffffff168152602001908152602001600020600081548110610cd157fe5b9060005260206000209060030201604051806060016040529081600082018054600181600116156101000203166002900480601f016020809104026020016040519081016040528092919081815260200182805460018160011615610100020316600290048015610d835780601f10610d5857610100808354040283529160200191610d83565b820191906000526020600020905b815481529060010190602001808311610d6657829003601f168201915b50505050508152602001600182018054600181600116156101000203166002900480601f016020809104026020016040519081016040528092919081815260200182805460018160011615610100020316600290048015610e255780601f10610dfa57610100808354040283529160200191610e25565b820191906000526020600020905b815481529060010190602001808311610e0857829003601f168201915b50505050508152602001600282018054600181600116156101000203166002900480601f016020809104026020016040519081016040528092919081815260200182805460018160011615610100020316600290048015610ec75780601f10610e9c57610100808354040283529160200191610ec7565b820191906000526020600020905b815481529060010190602001808311610eaa57829003601f168201915b5050505050815250509050806000015181602001518260400151829250819150809050935093509350509193909250565b600060606000610f06611181565b600360008773ffffffffffffffffffffffffffffffffffffffff1673ffffffffffffffffffffffffffffffffffffffff1681526020019081526020016000208581548110610f5057fe5b90600052602060002090600602016040518060c00160405290816000820160009054906101000a900473ffffffffffffffffffffffffffffffffffffffff1673ffffffffffffffffffffffffffffffffffffffff1673ffffffffffffffffffffffffffffffffffffffff168152602001600182018054600181600116156101000203166002900480601f0160208091040260200160405190810160405280929190818152602001828054600181600116156101000203166002900480156110585780601f1061102d57610100808354040283529160200191611058565b820191906000526020600020905b81548152906001019060200180831161103b57829003601f168201915b505050505081526020016002820154815260200160038201548152602001600482015481526020016005820154815250509050806000015181602001518260a00151819150935093509350509250925092565b6000600360008373ffffffffffffffffffffffffffffffffffffffff1673ffffffffffffffffffffffffffffffffffffffff168152602001908152602001600020805490509050919050565b8060008190555050565b828054600181600116156101000203166002900490600052602060002090601f016020900481019282601f1061114257805160ff1916838001178555611170565b82800160010185558215611170579182015b8281111561116f578251825591602001919060010190611154565b5b50905061117d91906111ee565b5090565b6040518060c00160405280600073ffffffffffffffffffffffffffffffffffffffff16815260200160608152602001600081526020016000815260200160008152602001600081525090565b60405180606001604052806060815260200160608152602001606081525090565b61121091905b8082111561120c5760008160009055506001016111f4565b5090565b9056fea265627a7a72315820bf25fe078cc117519cc3aee013ead83444a9951a3134d18496ac3b96a3c7b20b64736f6c63430005100032",
  "source": "// SPDX-License-Identifier: MIT\npragma solidity >=0.4.22 <0.9.0;\n\ncontract Migrations {\n  \n  uint public last_completed_migration;\n  address public ContractOwner;\n  \n  constructor() public {\n        ContractOwner = msg.sender;\n    }\n  \n\n    struct UserInfo{\n\t\tstring FullName;\n\t\tstring DocNum;\n\t\tstring IpfsHash;\n    }\n\n    struct DocRequest{\n\t\taddress ReqBy;\n    string reqName;\n    uint DocName;\n    uint DocNum;\n\t\tuint IpfsHash;\n    uint Overall_status;\n\n    }\n  mapping(address => UserInfo[]) UserMap;\n  mapping (address => DocRequest[]) DocReqMap;\n\n  function AddUser(address UserAddress,string memory FullName,string memory DocNum,string memory IpfsHash) public {\n        UserMap[UserAddress].push(UserInfo(FullName,DocNum,IpfsHash));\n        \n    } \n    function ViewDocRequestLength(address UserAddress) public view returns(uint length){\n        return DocReqMap[UserAddress].length;\n    }\n\n    function viewUser(address UserAddress) public view returns(string memory FullName,string memory DocNum, string memory IpfsHash) {\n        UserInfo memory ThisUser = UserMap[UserAddress][0];\n        return (ThisUser.FullName, ThisUser.DocNum, ThisUser.IpfsHash);\n    }\n  \n    function AddDocRequest (address UserAddress,address ReqBy, string memory Reqname, uint nameFlag, uint numFlag , uint ipfsHashFlag) public{\n      DocReqMap[UserAddress].push(DocRequest(ReqBy,Reqname,nameFlag,numFlag,ipfsHashFlag,0));\n    }\n     function ViewDocRequestHeader(address UserAddress, uint RequestIndex) public view returns(address Reqby,string memory ReqName, uint Overall_Status)\n    {\n        DocRequest memory ThisDocRequest=DocReqMap[UserAddress][RequestIndex];\n        return (ThisDocRequest.ReqBy,ThisDocRequest.reqName,ThisDocRequest.Overall_status);\n    }\n\n    function viewDocRequest (address UserAddress,uint ReqIndex) public view returns (address ReqBy, string memory Reqname, uint nameFlag, uint numFlag , uint ipfsHashFlag,uint Overall_status){\n      DocRequest memory ThisRequest = DocReqMap[UserAddress][ReqIndex];\n      return (ThisRequest.ReqBy,ThisRequest.reqName,ThisRequest.DocName,ThisRequest.DocNum,ThisRequest.IpfsHash,ThisRequest.Overall_status);\n\n    }\n  \n  function setCompleted(uint completed) public {\n    last_completed_migration = completed;\n  } \n\n\n}\n",
  "sourcePath": "E:\\training\\truffle\\id\\contracts\\Migrations.sol",
  "compiler": {
    "name": "solc",
    "version": "0.5.16+commit.9c3226ce.Emscripten.clang"
  },
  "schemaVersion": "3.4.3",
  "updatedAt": "2022-01-10T05:55:12.340Z",
  "networkType": "ethereum",
  "devdoc": {
    "methods": {}
  },
  "userdoc": {
    "methods": {}
  }
}