{
  "contractName": "Migrations",
  "abi": [
    {
      "inputs": [],
      "payable": false,
      "stateMutability": "nonpayable",
      "type": "constructor"
    },
    {
      "constant": true,
      "inputs": [],
      "name": "ContractOwner",
      "outputs": [
        {
          "internalType": "address",
          "name": "",
          "type": "address"
        }
      ],
      "payable": false,
      "stateMutability": "view",
      "type": "function"
    },
    {
      "constant": true,
      "inputs": [],
      "name": "last_completed_migration",
      "outputs": [
        {
          "internalType": "uint256",
          "name": "",
          "type": "uint256"
        }
      ],
      "payable": false,
      "stateMutability": "view",
      "type": "function"
    },
    {
      "constant": false,
      "inputs": [
        {
          "internalType": "address",
          "name": "UserAddress",
          "type": "address"
        },
        {
          "internalType": "string",
          "name": "FullName",
          "type": "string"
        },
        {
          "internalType": "string",
          "name": "DocNum",
          "type": "string"
        },
        {
          "internalType": "string",
          "name": "IpfsHash",
          "type": "string"
        }
      ],
      "name": "AddUser",
      "outputs": [],
      "payable": false,
      "stateMutability": "nonpayable",
      "type": "function"
    },
    {
      "constant": true,
      "inputs": [
        {
          "internalType": "address",
          "name": "UserAddress",
          "type": "address"
        }
      ],
      "name": "ViewDocRequestLength",
      "outputs": [
        {
          "internalType": "uint256",
          "name": "length",
          "type": "uint256"
        }
      ],
      "payable": false,
      "stateMutability": "view",
      "type": "function"
    },
    {
      "constant": true,
      "inputs": [
        {
          "internalType": "address",
          "name": "OrgAddress",
          "type": "address"
        }
      ],
      "name": "ViewOrgRequestLength",
      "outputs": [
        {
          "internalType": "uint256",
          "name": "length",
          "type": "uint256"
        }
      ],
      "payable": false,
      "stateMutability": "view",
      "type": "function"
    },
    {
      "constant": true,
      "inputs": [
        {
          "internalType": "address",
          "name": "UserAddress",
          "type": "address"
        }
      ],
      "name": "viewUser",
      "outputs": [
        {
          "internalType": "string",
          "name": "FullName",
          "type": "string"
        },
        {
          "internalType": "string",
          "name": "DocNum",
          "type": "string"
        },
        {
          "internalType": "string",
          "name": "IpfsHash",
          "type": "string"
        }
      ],
      "payable": false,
      "stateMutability": "view",
      "type": "function"
    },
    {
      "constant": false,
      "inputs": [
        {
          "internalType": "address",
          "name": "UserAddress",
          "type": "address"
        },
        {
          "internalType": "address",
          "name": "ReqBy",
          "type": "address"
        },
        {
          "internalType": "string",
          "name": "Reqname",
          "type": "string"
        },
        {
          "internalType": "uint256",
          "name": "nameFlag",
          "type": "uint256"
        },
        {
          "internalType": "uint256",
          "name": "numFlag",
          "type": "uint256"
        },
        {
          "internalType": "uint256",
          "name": "ipfsHashFlag",
          "type": "uint256"
        }
      ],
      "name": "AddDocRequest",
      "outputs": [],
      "payable": false,
      "stateMutability": "nonpayable",
      "type": "function"
    },
    {
      "constant": true,
      "inputs": [
        {
          "internalType": "address",
          "name": "UserAddress",
          "type": "address"
        },
        {
          "internalType": "uint256",
          "name": "RequestIndex",
          "type": "uint256"
        }
      ],
      "name": "ViewDocRequestHeader",
      "outputs": [
        {
          "internalType": "address",
          "name": "Reqby",
          "type": "address"
        },
        {
          "internalType": "string",
          "name": "ReqName",
          "type": "string"
        },
        {
          "internalType": "uint256",
          "name": "Overall_Status",
          "type": "uint256"
        }
      ],
      "payable": false,
      "stateMutability": "view",
      "type": "function"
    },
    {
      "constant": true,
      "inputs": [
        {
          "internalType": "address",
          "name": "OrgAddress",
          "type": "address"
        },
        {
          "internalType": "uint256",
          "name": "ReqIndex",
          "type": "uint256"
        }
      ],
      "name": "ViewDocsOrg",
      "outputs": [
        {
          "internalType": "address",
          "name": "UserAddress",
          "type": "address"
        },
        {
          "internalType": "uint256",
          "name": "Index",
          "type": "uint256"
        }
      ],
      "payable": false,
      "stateMutability": "view",
      "type": "function"
    },
    {
      "constant": true,
      "inputs": [
        {
          "internalType": "address",
          "name": "OrgAddress",
          "type": "address"
        },
        {
          "internalType": "address",
          "name": "UserAddress",
          "type": "address"
        }
      ],
      "name": "ViewReqExists",
      "outputs": [
        {
          "internalType": "bool",
          "name": "exists",
          "type": "bool"
        }
      ],
      "payable": false,
      "stateMutability": "view",
      "type": "function"
    },
    {
      "constant": true,
      "inputs": [
        {
          "internalType": "address",
          "name": "UserAddress",
          "type": "address"
        },
        {
          "internalType": "uint256",
          "name": "ReqIndex",
          "type": "uint256"
        }
      ],
      "name": "viewDocRequest",
      "outputs": [
        {
          "internalType": "address",
          "name": "ReqBy",
          "type": "address"
        },
        {
          "internalType": "string",
          "name": "Reqname",
          "type": "string"
        },
        {
          "internalType": "uint256",
          "name": "nameFlag",
          "type": "uint256"
        },
        {
          "internalType": "uint256",
          "name": "numFlag",
          "type": "uint256"
        },
        {
          "internalType": "uint256",
          "name": "ipfsHashFlag",
          "type": "uint256"
        },
        {
          "internalType": "uint256",
          "name": "Overall_status",
          "type": "uint256"
        }
      ],
      "payable": false,
      "stateMutability": "view",
      "type": "function"
    },
    {
      "constant": false,
      "inputs": [
        {
          "internalType": "address",
          "name": "UserAddress",
          "type": "address"
        },
        {
          "internalType": "uint256",
          "name": "RequestIndex",
          "type": "uint256"
        },
        {
          "internalType": "uint256",
          "name": "nameFlag",
          "type": "uint256"
        },
        {
          "internalType": "uint256",
          "name": "numFlag",
          "type": "uint256"
        },
        {
          "internalType": "uint256",
          "name": "ipfsHashFlag",
          "type": "uint256"
        },
        {
          "internalType": "uint256",
          "name": "Overall_Status",
          "type": "uint256"
        }
      ],
      "name": "UpdateRequestStatus",
      "outputs": [],
      "payable": false,
      "stateMutability": "nonpayable",
      "type": "function"
    },
    {
      "constant": false,
      "inputs": [
        {
          "internalType": "uint256",
          "name": "completed",
          "type": "uint256"
        }
      ],
      "name": "setCompleted",
      "outputs": [],
      "payable": false,
      "stateMutability": "nonpayable",
      "type": "function"
    }
  ],
  "bytecode": "0x608060405234801561001057600080fd5b5033600160006101000a81548173ffffffffffffffffffffffffffffffffffffffff021916908373ffffffffffffffffffffffffffffffffffffffff1602179055506119a8806100616000396000f3fe608060405234801561001057600080fd5b50600436106100cf5760003560e01c80636cc8bda71161008c578063937a6f5f11610066578063937a6f5f146109155780639e1a278614610991578063b2c23aed146109e9578063fdacd57614610a41576100cf565b80636cc8bda7146106095780637564e2651461079e578063772b89f61461089f576100cf565b8063445df0ac146100d457806348b6fba4146100f25780634ac320751461020b5780634e3dd8d114610414578063556343f0146104a95780635a63fbc9146105bf575b600080fd5b6100dc610a6f565b6040518082815260200191505060405180910390f35b610209600480360360c081101561010857600080fd5b81019080803573ffffffffffffffffffffffffffffffffffffffff169060200190929190803573ffffffffffffffffffffffffffffffffffffffff1690602001909291908035906020019064010000000081111561016557600080fd5b82018360208201111561017757600080fd5b8035906020019184600183028401116401000000008311171561019957600080fd5b91908080601f016020809104026020016040519081016040528093929190818152602001838380828437600081840152601f19601f820116905080830192505050505050509192919290803590602001909291908035906020019092919080359060200190929190505050610a75565b005b6104126004803603608081101561022157600080fd5b81019080803573ffffffffffffffffffffffffffffffffffffffff1690602001909291908035906020019064010000000081111561025e57600080fd5b82018360208201111561027057600080fd5b8035906020019184600183028401116401000000008311171561029257600080fd5b91908080601f016020809104026020016040519081016040528093929190818152602001838380828437600081840152601f19601f820116905080830192505050505050509192919290803590602001906401000000008111156102f557600080fd5b82018360208201111561030757600080fd5b8035906020019184600183028401116401000000008311171561032957600080fd5b91908080601f016020809104026020016040519081016040528093929190818152602001838380828437600081840152601f19601f8201169050808301925050505050505091929192908035906020019064010000000081111561038c57600080fd5b82018360208201111561039e57600080fd5b803590602001918460018302840111640100000000831117156103c057600080fd5b91908080601f016020809104026020016040519081016040528093929190818152602001838380828437600081840152601f19601f820116905080830192505050505050509192919290505050610ceb565b005b6104606004803603604081101561042a57600080fd5b81019080803573ffffffffffffffffffffffffffffffffffffffff16906020019092919080359060200190929190505050610dd0565b604051808373ffffffffffffffffffffffffffffffffffffffff1673ffffffffffffffffffffffffffffffffffffffff1681526020018281526020019250505060405180910390f35b6104f5600480360360408110156104bf57600080fd5b81019080803573ffffffffffffffffffffffffffffffffffffffff16906020019092919080359060200190929190505050610eb6565b604051808773ffffffffffffffffffffffffffffffffffffffff1673ffffffffffffffffffffffffffffffffffffffff16815260200180602001868152602001858152602001848152602001838152602001828103825287818151815260200191508051906020019080838360005b8381101561057f578082015181840152602081019050610564565b50505050905090810190601f1680156105ac5780820380516001836020036101000a031916815260200191505b5097505050505050505060405180910390f35b6105c7611085565b604051808273ffffffffffffffffffffffffffffffffffffffff1673ffffffffffffffffffffffffffffffffffffffff16815260200191505060405180910390f35b61064b6004803603602081101561061f57600080fd5b81019080803573ffffffffffffffffffffffffffffffffffffffff1690602001909291905050506110ab565b60405180806020018060200180602001848103845287818151815260200191508051906020019080838360005b83811015610693578082015181840152602081019050610678565b50505050905090810190601f1680156106c05780820380516001836020036101000a031916815260200191505b50848103835286818151815260200191508051906020019080838360005b838110156106f95780820151818401526020810190506106de565b50505050905090810190601f1680156107265780820380516001836020036101000a031916815260200191505b50848103825285818151815260200191508051906020019080838360005b8381101561075f578082015181840152602081019050610744565b50505050905090810190601f16801561078c5780820380516001836020036101000a031916815260200191505b50965050505050505060405180910390f35b6107ea600480360360408110156107b457600080fd5b81019080803573ffffffffffffffffffffffffffffffffffffffff1690602001909291908035906020019092919050505061132a565b604051808473ffffffffffffffffffffffffffffffffffffffff1673ffffffffffffffffffffffffffffffffffffffff16815260200180602001838152602001828103825284818151815260200191508051906020019080838360005b83811015610862578082015181840152602081019050610847565b50505050905090810190601f16801561088f5780820380516001836020036101000a031916815260200191505b5094505050505060405180910390f35b610913600480360360c08110156108b557600080fd5b81019080803573ffffffffffffffffffffffffffffffffffffffff16906020019092919080359060200190929190803590602001909291908035906020019092919080359060200190929190803590602001909291905050506114dd565b005b6109776004803603604081101561092b57600080fd5b81019080803573ffffffffffffffffffffffffffffffffffffffff169060200190929190803573ffffffffffffffffffffffffffffffffffffffff169060200190929190505050611665565b604051808215151515815260200191505060405180910390f35b6109d3600480360360208110156109a757600080fd5b81019080803573ffffffffffffffffffffffffffffffffffffffff16906020019092919050505061178f565b6040518082815260200191505060405180910390f35b610a2b600480360360208110156109ff57600080fd5b81019080803573ffffffffffffffffffffffffffffffffffffffff1690602001909291905050506117db565b6040518082815260200191505060405180910390f35b610a6d60048036036020811015610a5757600080fd5b8101908080359060200190929190505050611827565b005b60005481565b6000600360008873ffffffffffffffffffffffffffffffffffffffff1673ffffffffffffffffffffffffffffffffffffffff168152602001908152602001600020805490509050600360008873ffffffffffffffffffffffffffffffffffffffff1673ffffffffffffffffffffffffffffffffffffffff1681526020019081526020016000206040518060c001604052808873ffffffffffffffffffffffffffffffffffffffff16815260200187815260200186815260200185815260200184815260200160008152509080600181540180825580915050906001820390600052602060002090600602016000909192909190915060008201518160000160006101000a81548173ffffffffffffffffffffffffffffffffffffffff021916908373ffffffffffffffffffffffffffffffffffffffff1602179055506020820151816001019080519060200190610bcd929190611831565b5060408201518160020155606082015181600301556080820151816004015560a08201518160050155505050600460008773ffffffffffffffffffffffffffffffffffffffff1673ffffffffffffffffffffffffffffffffffffffff16815260200190815260200160002060405180604001604052808973ffffffffffffffffffffffffffffffffffffffff168152602001838152509080600181540180825580915050906001820390600052602060002090600202016000909192909190915060008201518160000160006101000a81548173ffffffffffffffffffffffffffffffffffffffff021916908373ffffffffffffffffffffffffffffffffffffffff1602179055506020820151816001015550505050505050505050565b600260008573ffffffffffffffffffffffffffffffffffffffff1673ffffffffffffffffffffffffffffffffffffffff168152602001908152602001600020604051806060016040528085815260200184815260200183815250908060018154018082558091505090600182039060005260206000209060030201600090919290919091506000820151816000019080519060200190610d8c929190611831565b506020820151816001019080519060200190610da9929190611831565b506040820151816002019080519060200190610dc6929190611831565b5050505050505050565b600080610ddb6118b1565b600460008673ffffffffffffffffffffffffffffffffffffffff1673ffffffffffffffffffffffffffffffffffffffff1681526020019081526020016000208481548110610e2557fe5b90600052602060002090600202016040518060400160405290816000820160009054906101000a900473ffffffffffffffffffffffffffffffffffffffff1673ffffffffffffffffffffffffffffffffffffffff1673ffffffffffffffffffffffffffffffffffffffff16815260200160018201548152505090508060000151816020015192509250509250929050565b60006060600080600080610ec86118e1565b600360008a73ffffffffffffffffffffffffffffffffffffffff1673ffffffffffffffffffffffffffffffffffffffff1681526020019081526020016000208881548110610f1257fe5b90600052602060002090600602016040518060c00160405290816000820160009054906101000a900473ffffffffffffffffffffffffffffffffffffffff1673ffffffffffffffffffffffffffffffffffffffff1673ffffffffffffffffffffffffffffffffffffffff168152602001600182018054600181600116156101000203166002900480601f01602080910402602001604051908101604052809291908181526020018280546001816001161561010002031660029004801561101a5780601f10610fef5761010080835404028352916020019161101a565b820191906000526020600020905b815481529060010190602001808311610ffd57829003601f168201915b505050505081526020016002820154815260200160038201548152602001600482015481526020016005820154815250509050806000015181602001518260400151836060015184608001518560a00151849450965096509650965096509650509295509295509295565b600160009054906101000a900473ffffffffffffffffffffffffffffffffffffffff1681565b60608060606110b861192d565b600260008673ffffffffffffffffffffffffffffffffffffffff1673ffffffffffffffffffffffffffffffffffffffff16815260200190815260200160002060008154811061110357fe5b9060005260206000209060030201604051806060016040529081600082018054600181600116156101000203166002900480601f0160208091040260200160405190810160405280929190818152602001828054600181600116156101000203166002900480156111b55780601f1061118a576101008083540402835291602001916111b5565b820191906000526020600020905b81548152906001019060200180831161119857829003601f168201915b50505050508152602001600182018054600181600116156101000203166002900480601f0160208091040260200160405190810160405280929190818152602001828054600181600116156101000203166002900480156112575780601f1061122c57610100808354040283529160200191611257565b820191906000526020600020905b81548152906001019060200180831161123a57829003601f168201915b50505050508152602001600282018054600181600116156101000203166002900480601f0160208091040260200160405190810160405280929190818152602001828054600181600116156101000203166002900480156112f95780601f106112ce576101008083540402835291602001916112f9565b820191906000526020600020905b8154815290600101906020018083116112dc57829003601f168201915b5050505050815250509050806000015181602001518260400151829250819150809050935093509350509193909250565b6000606060006113386118e1565b600360008773ffffffffffffffffffffffffffffffffffffffff1673ffffffffffffffffffffffffffffffffffffffff168152602001908152602001600020858154811061138257fe5b90600052602060002090600602016040518060c00160405290816000820160009054906101000a900473ffffffffffffffffffffffffffffffffffffffff1673ffffffffffffffffffffffffffffffffffffffff1673ffffffffffffffffffffffffffffffffffffffff168152602001600182018054600181600116156101000203166002900480601f01602080910402602001604051908101604052809291908181526020018280546001816001161561010002031660029004801561148a5780601f1061145f5761010080835404028352916020019161148a565b820191906000526020600020905b81548152906001019060200180831161146d57829003601f168201915b505050505081526020016002820154815260200160038201548152602001600482015481526020016005820154815250509050806000015181602001518260a00151819150935093509350509250925092565b83600360008873ffffffffffffffffffffffffffffffffffffffff1673ffffffffffffffffffffffffffffffffffffffff168152602001908152602001600020868154811061152857fe5b90600052602060002090600602016002018190555082600360008873ffffffffffffffffffffffffffffffffffffffff1673ffffffffffffffffffffffffffffffffffffffff168152602001908152602001600020868154811061158857fe5b90600052602060002090600602016003018190555081600360008873ffffffffffffffffffffffffffffffffffffffff1673ffffffffffffffffffffffffffffffffffffffff16815260200190815260200160002086815481106115e857fe5b90600052602060002090600602016004018190555080600360008873ffffffffffffffffffffffffffffffffffffffff1673ffffffffffffffffffffffffffffffffffffffff168152602001908152602001600020868154811061164857fe5b906000526020600020906006020160050181905550505050505050565b6000806000905060008090505b600460008673ffffffffffffffffffffffffffffffffffffffff1673ffffffffffffffffffffffffffffffffffffffff16815260200190815260200160002080549050811015611783578373ffffffffffffffffffffffffffffffffffffffff16600460008773ffffffffffffffffffffffffffffffffffffffff1673ffffffffffffffffffffffffffffffffffffffff168152602001908152602001600020828154811061171d57fe5b906000526020600020906002020160000160009054906101000a900473ffffffffffffffffffffffffffffffffffffffff1673ffffffffffffffffffffffffffffffffffffffff16141561177657600192505050611789565b8080600101915050611672565b50809150505b92915050565b6000600460008373ffffffffffffffffffffffffffffffffffffffff1673ffffffffffffffffffffffffffffffffffffffff168152602001908152602001600020805490509050919050565b6000600360008373ffffffffffffffffffffffffffffffffffffffff1673ffffffffffffffffffffffffffffffffffffffff168152602001908152602001600020805490509050919050565b8060008190555050565b828054600181600116156101000203166002900490600052602060002090601f016020900481019282601f1061187257805160ff19168380011785556118a0565b828001600101855582156118a0579182015b8281111561189f578251825591602001919060010190611884565b5b5090506118ad919061194e565b5090565b6040518060400160405280600073ffffffffffffffffffffffffffffffffffffffff168152602001600081525090565b6040518060c00160405280600073ffffffffffffffffffffffffffffffffffffffff16815260200160608152602001600081526020016000815260200160008152602001600081525090565b60405180606001604052806060815260200160608152602001606081525090565b61197091905b8082111561196c576000816000905550600101611954565b5090565b9056fea265627a7a72315820ebff9f47eebcf765ff23cec34f37153ee5d7459c41961d32e3891af590afcd2364736f6c63430005100032",
  "source": "// SPDX-License-Identifier: MIT\npragma solidity >=0.4.22 <0.9.0;\n\ncontract Migrations {\n  \n  uint public last_completed_migration;\n  address public ContractOwner;\n  \n  constructor() public {\n        ContractOwner = msg.sender;\n    }\n  \n\n    struct UserInfo{\n\t\tstring FullName;\n\t\tstring DocNum;\n\t\tstring IpfsHash;\n    }\n\n    struct DocRequest{\n\t\taddress ReqBy;\n    string reqName;\n    uint DocName;\n    uint DocNum;\n\t\tuint IpfsHash;\n    uint Overall_status;\n\n    }\n\n    struct Org_reqlist{\n      address UserAddress;\n      uint Index;\n    }\n  mapping(address => UserInfo[]) UserMap;\n  mapping (address => DocRequest[]) DocReqMap;\n  mapping (address => Org_reqlist[]) Org_DocReqMap;\n\n  function AddUser(address UserAddress,string memory FullName,string memory DocNum,string memory IpfsHash) public {\n        UserMap[UserAddress].push(UserInfo(FullName,DocNum,IpfsHash));\n        \n    } \n\n\n    function ViewDocRequestLength(address UserAddress) public view returns(uint length){\n        return DocReqMap[UserAddress].length;\n    }\n\n\n    function ViewOrgRequestLength(address OrgAddress) public view returns(uint length){\n        return Org_DocReqMap[OrgAddress].length;\n    }\n\n\n\n    function viewUser(address UserAddress) public view returns(string memory FullName,string memory DocNum, string memory IpfsHash) {\n        UserInfo memory ThisUser = UserMap[UserAddress][0];\n        return (ThisUser.FullName, ThisUser.DocNum, ThisUser.IpfsHash);\n    }\n  \n\n\n    function AddDocRequest (address UserAddress,address ReqBy, string memory Reqname, uint nameFlag, uint numFlag , uint ipfsHashFlag) public{\n      uint len = DocReqMap[UserAddress].length;\n      DocReqMap[UserAddress].push(DocRequest(ReqBy,Reqname,nameFlag,numFlag,ipfsHashFlag,0));\n      Org_DocReqMap[ReqBy].push(Org_reqlist(UserAddress,len));\n    }\n\n\n     function ViewDocRequestHeader(address UserAddress, uint RequestIndex) public view returns(address Reqby,string memory ReqName, uint Overall_Status)\n    {\n        DocRequest memory ThisDocRequest=DocReqMap[UserAddress][RequestIndex];\n        return (ThisDocRequest.ReqBy,ThisDocRequest.reqName,ThisDocRequest.Overall_status);\n    }\n\n   \n    function ViewDocsOrg (address OrgAddress, uint ReqIndex)public view returns(address UserAddress,uint Index){\n        Org_reqlist memory Org_req = Org_DocReqMap[OrgAddress][ReqIndex];\n        return (Org_req.UserAddress, Org_req.Index);\n    }\n\n    function ViewReqExists (address OrgAddress,address UserAddress) public view returns (bool exists){\n      bool res = false;\n      for (uint i = 0; i < Org_DocReqMap[OrgAddress].length ; i++){\n        \n        if(Org_DocReqMap[OrgAddress][i].UserAddress == UserAddress){\n          return (true);\n        }\n      }\n      return (res);\n    }\n\n    function viewDocRequest (address UserAddress,uint ReqIndex) public view returns (address ReqBy, string memory Reqname, uint nameFlag, uint numFlag , uint ipfsHashFlag,uint Overall_status){\n      DocRequest memory ThisRequest = DocReqMap[UserAddress][ReqIndex];\n      return (ThisRequest.ReqBy,ThisRequest.reqName,ThisRequest.DocName,ThisRequest.DocNum,ThisRequest.IpfsHash,ThisRequest.Overall_status);\n\n    }\n\n\n\n     function UpdateRequestStatus(address UserAddress, uint RequestIndex, uint nameFlag, uint numFlag, uint ipfsHashFlag ,uint Overall_Status) public {\n    \n    DocReqMap[UserAddress][RequestIndex].DocName=nameFlag;\n\t\tDocReqMap[UserAddress][RequestIndex].DocNum=numFlag;\n\t\tDocReqMap[UserAddress][RequestIndex].IpfsHash=ipfsHashFlag;\n\t\tDocReqMap[UserAddress][RequestIndex].Overall_status=Overall_Status;\n\t\t\n    }\n  \n  function setCompleted(uint completed) public {\n    last_completed_migration = completed;\n  } \n\n\n}\n",
  "sourcePath": "E:\\training\\truffle\\id\\contracts\\Migrations.sol",
  "compiler": {
    "name": "solc",
    "version": "0.5.16+commit.9c3226ce.Emscripten.clang"
  },
  "schemaVersion": "3.4.3",
  "updatedAt": "2022-01-26T13:23:53.993Z",
  "networkType": "ethereum",
  "devdoc": {
    "methods": {}
  },
  "userdoc": {
    "methods": {}
  }
}